:020000040800F2
:10000000E804002001010008071C0008491B000843
:10001000051C0008F1070008E11E000800000000B0
:100020000000000000000000000000000B1C0008A1
:10003000F307000800000000091C00080D1C000860
:100040001B0100081B0100081B0100081B01000820
:100050001B0100081B0100081B0100081B01000810
:100060001B0100081B0100081B0100081B01000800
:100070001B0100081B0100081B0100081B010008F0
:100080001B0100081B0100081B0100081B010008E0
:100090001B0100081B0100081B0100081B010008D0
:1000A0001B0100081B0100081B0100081B010008C0
:1000B0001B0100081B0100081B0100081B010008B0
:1000C0001B0100081B0100081B0100081B010008A0
:1000D0001B010008C91E0008D51E00081B010008EE
:1000E0001B0100081B0100081B010008DFF80CD0F1
:1000F00000F0EEFA0048004735280008E804002028
:100100000648804706480047FEE7FEE7FEE7FEE7B1
:10011000FEE7FEE7FEE7FEE7FEE7FEE75F1C0008FE
:10012000ED000008202A04DB203A21FA02F0002129
:10013000704721FA02F3D040C2F1200291400843F7
:1001400019467047D2B201E000F8012B491EFBD2DC
:1001500070470022F6E710B513460A4604461946D2
:10016000FFF7F0FF204610BD30B505462A460B4686
:1001700012F8010B13F8014B08B1A042F8D01CB1E2
:10018000002802D06D1CF1E7284630BDF0B480EAAB
:100190000102D40F4200B2EB410F02D202460846E0
:1001A00011464A0042D0C30DDDB2C1F3C752AD1AA9
:1001B000202D35DAC1F3160141F4000204B1524298
:1001C000C5F1200602FA06F12A411044B3EBD05FD4
:1001D00023D0C4B1012DA0EBC35009DCF0BC4FF01B
:1001E000004202EAC352DBB200F5000000F089B819
:1001F000400000F1807000EBC350A0F1807040EA35
:10020000D170490009E0490841EAC071A0EBC35030
:1002100000F50000400800EBC350F0BC00F068B8E7
:100220006142012202EB4101001BF6E7F0BC70477E
:1002300081F00041AAE780F00040A7E700F000420B
:1002400030F000400AD0C10D01F56071C0F3160016
:1002500042EA0151C208400711437047002001469D
:10026000704730B50B46014600202022012409E0EA
:1002700021FA02F59D4205D303FA02F5491B04FA5F
:1002800002F52844151EA2F10102F1DC30BD2DE972
:10029000F05F0546002092469B468846064681460A
:1002A00040241BE02846414647462246FFF73AFFD6
:1002B00053465A46C01A914110D311461846224659
:1002C00000F018FA2D1A67EB01084F46224601206C
:1002D000002100F00FFA17EB00094E41201EA4F197
:1002E0000104DFDC484631462A464346BDE8F09F1C
:1002F0000029A8BF7047401C490008BF20F001003A
:10030000704710B4B0FA80FC00FA0CF050EA010417
:1003100004BF10BC704749B1CCF1200421FA04F4A9
:1003200011FA0CF118BF012121430843A3EB0C0182
:10033000CB1D4FEA00614FEA102042BF002010BCE5
:10034000704700EBC35010440029A4BF10BC704795
:10035000401C490008BF20F0010010BC70472DE987
:10036000FE4F804681EA0300C00F0C46009021F04A
:10037000004123F00045B8EB0200A94105D24046F8
:10038000214690461C460B46024623F0004010438F
:1003900047D0270DC7F30A00C3F30A510290401A51
:1003A000019040286BDAC3F3130040F4801B0098DF
:1003B000924620B10023D2EB030A63EB0B0B0198AA
:1003C0005946C0F14002504600F094F906460D46E9
:1003D00050465946019A00F09CF910EB0800614123
:1003E000002487EA115284EAE7731A4340D0009A46
:1003F00062B3019A012A4FEA075215DC001B61EB38
:1004000002014FF0004202EA0752CDE90042001C0F
:1004100041F5801132462B4600F09CF903B0BDE84F
:10042000F08F40462146F9E7001B61EB0201001CFA
:1004300041F5801300185B412018A2F5001747EB27
:10044000030140EAD570B6196D4111E06D084FEA1D
:10045000360645EAC0754FEA0752001B61EB020100
:10046000001C41F5801149084FEA30000019514144
:1004700032462B4603B0BDE8F04F00F05CB900985F
:10048000012240000023D0EB020263EBE0730098EE
:1004900021464FEAE074B8EB000061EB0401E9E7A4
:1004A00083F000435BE781F0004158E72DE9FE4F00
:1004B00081EA030404F0004421F0004100944FF06D
:1004C000000B23F0004350EA01045ED052EA03041B
:1004D0005BD0C3F30A54C1F30A552C44A4F2F3349D
:1004E0000194A0FB0254C1F3130141F48011C3F342
:1004F000130343F4801301FB024400FB034E840A00
:10050000970A44EA815447EA8357A4FB0768029597
:100510008D0A05FB07854FEA932C04FB0C54270535
:10052000029D4FEA065847EA1637B5EB08056EEB11
:10053000070C870E920E47EA811742EA8312A7FB47
:100540000201B6EB0B0164EB00042B0D43EA0C3304
:100550005E1844EB1C50DA465146E7FB0201C5F336
:1005600013044FEA0B3343EA14534FEA0432019C5D
:1005700043EA0603A4F10C040294009CCDE900B404
:1005800000F0E8F803B0BDE8F08F00200146F9E77D
:100590002DE9F04D81EA030404F0004B21F0004501
:1005A00014464FF0000A23F0004150EA050220D023
:1005B00054EA01021DD0C5F30A570246C5F31303DE
:1005C000C1F31300C1F30A5640F4801543F48013BD
:1005D000A7EB0608101BD64608F2FD3873EB0500A2
:1005E00002D308F1010801E092185B41B8F1000F55
:1005F00003DA00200146BDE8F08D00204FF48011A1
:10060000064684460EE0171B73EB050705D3121B45
:1006100063EB050306434CEA010C49084FEA30003E
:1006200092185B4150EA0107EDD152EA030012D063
:1006300082EA040083EA0501084305D0101BAB41A0
:1006400006D20122002306E000224FF0004302E020
:100650006FF0010253101AEB06004CEB085110EB3F
:100660000A0041EB0B01BDE8F04D00F064B8C1F3A6
:100670000A52C1F3130140F2FF3341F480119A4250
:1006800002DA00200146704740F233439A42A2F258
:10069000334202DC5242FFF745BD00F02BB80000A8
:1006A00030B5041E71F1000404DB4FF000444042F9
:1006B00064EB0101141E73F1000405DB1C464FF0CE
:1006C0000043524263EB0403994208BF904230BD9D
:1006D000064C074D06E0E06840F0010394E807008F
:1006E00098471034AC42F6D3FFF704FDE828000821
:1006F00008290008202A04DB203A00FA02F1002031
:1007000070479140C2F1200320FA03F3194390404F
:100710007047202A06DBCB17203A41FA02F043EA61
:10072000E07306E041FA02F3D040C2F120029140AA
:1007300008431946704710B5141E73F1000408DA17
:10074000401C41F1000192185B411A4301D120F095
:10075000010010BD2DE9F04D92469B4611B1B1FA52
:1007600081F202E0B0FA80F220329046FFF7C2FF39
:1007700004460F4640EA0A0041EA0B0153465A4636
:10078000084313D0114653EA010019D0C8F14002C2
:100790005046FFF7C7FC05460E46504659464246AE
:1007A000FFF7A8FF084305D0012004E020463946A2
:1007B000BDE8F08D0020054346EAE0762C43374340
:1007C0000A986305E40AA0EB08000022FD0A44EA47
:1007D00047540A3002D500200146E9E70105101907
:1007E0006941DDE9084500196941BDE8F04DA2E71E
:1007F000FEE7704710B590F821100024022903D0BD
:100800000421816301243DE001680A6822F00E02A0
:100810000A6001680A6822F001020A601A4A016847
:10082000914201D1012121E0174A1432914201D1B4
:1008300010211BE0144A2832914201D1891515E09C
:10084000114A3C32914201D189140FE00E4A5032D4
:10085000914202D14FF4803108E00B4A6432914258
:1008600002D14FF4801101E04FF08071064A083A3E
:100870005160012180F82110002180F82010416B87
:1008800001B18847204610BD080002402DE9F84F0D
:100890000026DFF89CB20D460446B14658450FD0FD
:1008A000A44884420CD0A448844209D0A34884427E
:1008B00006D0A348844203D0BD21A2A001F08BFF43
:1008C00028680104090C01D0000C03D0BE219DA0B2
:1008D00001F081FF6868DFF8A8A200281ED0012877
:1008E000FCD01128FAD00228F8D01228F6D05045B2
:1008F000F4D0A4498842F1D0A3498842EED0A3495C
:100900008842EBD0A2498842E8D0A2498842E5D08B
:100910000328E3D0BF218BA001F05DFF00E101209F
:1009200000FA06F807EA080747456FD15C450FD083
:10093000804884420CD08048844209D07F48844259
:1009400006D07F48844203D0CD217EA001F043FF32
:100950006868A0EB0A02504559D00EDC032875D018
:1009600006DC002853D0012819D0022869D131E0D3
:10097000112821D0122864D13AE0B2F5881F46D060
:1009800006DCB2F5803F42D0B2F5801F59D13EE07F
:10099000B2F5001F3BD0B2F5041F52D137E0E86832
:1009A000022807D0012805D0032803D0D52165A04F
:1009B00001F011FFE8683EE0E868022807D001284E
:1009C00005D0032803D0DC215EA001F004FFE86815
:1009D000001D30E0E868022807D0012805D0032870
:1009E00003D0E32157A001F0F6FEE868083022E0CA
:1009F000E868022807D0012805D0032803D0EA219F
:100A000050A001F0E8FEE8680C3014E087E0A86828
:100A100080B1012811D0022807D0F72149A001F0A8
:100A2000DAFEA86830B1012807D04FF00809C4F8F1
:100A3000148006E00420814603E04FF00809C4F862
:100A40001080FF2F05D8214605E0FFE74FF000009A
:100A5000F1E704F104014FEA860001D9A0F120007A
:100A60000B684FF00F0202FA00FC23EA0C0309FAAC
:100A700000FC43EA0C030B606868C0004FD5464891
:100A8000816941F001018161806926F0030100F074
:100A90000100009041480B189868B1074FEA117C9B
:100AA00002FA0CF290435C4501D100210FE021498C
:100AB0008C4201D101210AE01F498C4201D102215F
:100AC00005E01E498C4201D1032100E0042101FA16
:100AD0000CF1014399606868C0033148016801D591
:100AE000394300E0B9430160686880032D4801681C
:100AF00001D5394300E0B94301606868C0022A4863
:100B0000016801D5394300E0B9430160686880029B
:100B10002648016801D5394300E0B9430160761CDD
:100B20002F6837FA06F07FF4FAAEBDE8F88F0000C0
:100B300000080140000C0140001001400014014079
:100B4000001801402E2E2F447269766572732F5360
:100B5000544D3332463178785F48414C5F44726976
:100B60007665722F5372632F73746D3332663178EA
:100B7000785F68616C5F6770696F2E6300000000CA
:100B800000001110000021100000311000001210B0
:100B9000000022100000321000100240000001404E
:100BA0000004014004040140080401400C04014019
:100BB00070B50C00054604D14FF4F67105A001F0A4
:100BC0000AFEE96824EA0100214040EA0140286168
:100BD00070BD00002E2E2F447269766572732F53FC
:100BE000544D3332463178785F48414C5F447269E6
:100BF0007665722F5372632F73746D33326631785A
:100C0000785F68616C5F6770696F2E630000000039
:100C100070B515460C00064604D14FF4EA7108A0E1
:100C200001F0D9FD45B1012D04D040F2D51104A049
:100C300001F0D1FD346170BD2004306170BD000051
:100C40002E2E2F447269766572732F53544D3332B2
:100C5000463178785F48414C5F4472697665722FFF
:100C60005372632F73746D3332663178785F6861C5
:100C70006C5F6770696F2E63000000000148806838
:100C8000704700001C00002002488168027811446F
:100C9000816070471C000020074810B5016841F0D2
:100CA00010010160032000F0C9F8002000F006F8F0
:100CB00000F024F8002010BD0020024070B50D4D5A
:100CC00004464FF47A712878B1FBF0F00A490968BC
:100CD000B1FBF0F000F0A5FC48B9102C07D20022BF
:100CE0002146501E00F05AF800206C6070BD0120B3
:100CF00070BD00001C000020280000200C4808B532
:100D0000816941F001018161816901F00101009176
:100D1000C16941F08051C161C06900F0805000900C
:100D20000448416821F0E06141F00071416008BD74
:100D3000001002400000014010B5040003D5BE21A0
:100D400007A001F048FD002C09DB04F01F01012081
:100D500088406109890001F1E021C1F8000110BD5E
:100D60002E2E2F447269766572732F53544D333291
:100D7000463178785F48414C5F4472697665722FDE
:100D80005372632F73746D3332663178785F6861A4
:100D90006C5F636F727465782E63000070B51546E2
:100DA0000C460646102A03D3AA2114A001F013FD15
:100DB000102C03D3AB2111A001F00DFD1E480068DB
:100DC000C0F30223C3F107022046042A00D90422FB
:100DD000191D072901D2002300E0DB1E012404FABB
:100DE00002F1491E014099409C40641E2C40214361
:100DF0003046BDE8704001F085B800002E2E2F442B
:100E00007269766572732F53544D33324631787858
:100E10005F48414C5F4472697665722F5372632F4D
:100E200073746D3332663178785F68616C5F636FBD
:100E3000727465782E6300000CED00E010B5044676
:100E400007280BD0062C09D0052C07D0042C05D080
:100E5000032C03D0922108A001F0BDFC154904F039
:100E6000070208684FF6FF03184040EA0220124AC2
:100E70001043086010BD00002E2E2F447269766565
:100E800072732F53544D3332463178785F48414C5A
:100E90005F4472697665722F5372632F73746D337A
:100EA00032663178785F68616C5F636F7274657801
:100EB0002E6300000CED00E00000FA052DE9F0477C
:100EC0000F46050078D02868C1070AD1810708D4E9
:100ED000410706D4000704D44FF44E716FA001F00F
:100EE0007AFC47B1012F06D0022F04D040F23931ED
:100EF0006AA001F070FC774E306800F00700B8423D
:100F000009D2306820F0070038433060306800F0C4
:100F10000700B84277D128686F4C810729D5400770
:100F200003D5606840F4E06060602878000703D56E
:100F3000606840F460506060A868A0B1802812D05A
:100F4000902810D0A0280ED0B0280CD0C0280AD0ED
:100F5000D02808D0E02806D0F02804D040F25F3135
:100F60004EA001F038FC6068A96820F0F00008434A
:100F700060602878C00737D0686868B101281CD045
:100F800002281DD040F2663144A001F024FC6868BC
:100F9000012812D0022813D020688007002832DAF6
:100FA0006068696820F0030008436060FFF766FE30
:100FB000804641F2883910E025E020688003EDE7A3
:100FC00020688001EAE700BFFFF758FEA0EB0801A8
:100FD000494502D90320BDE8F0876068696800F0E0
:100FE0000C00B0EB810FEFD1306800F00700B84281
:100FF0000BD9306820F0070038433060306800F0CB
:101000000700B84201D00120E5E728784FF4806658
:1010100040074FF4A0674FF4C0684FF4E06914D55F
:10102000E86860B1B0420AD0B84208D0404506D066
:10103000484504D04FF4697118A001F0CCFB6068FA
:10104000E96820F4E060084360602878000715D55F
:10105000286960B1B0420AD0B84208D0404506D0F5
:10106000484504D040F2AB310CA001F0B4FB6068FD
:10107000296920F4605040EAC100606000F054F833
:101080006168164AC1F30311515CC84014490860F5
:1010900014480068FFF712FE00209CE72E2E2F4414
:1010A0007269766572732F53544D333246317878B6
:1010B0005F48414C5F4472697665722F5372632FAB
:1010C00073746D3332663178785F68616C5F726318
:1010D000632E63000020024000100240D028000868
:1010E00028000020200000200448054900684968C5
:1010F000044AC1F30221515CC84070472800002017
:1011000000100240E02800080448054900684968CA
:10111000044AC1F3C221515CC84070472800002036
:1011200000100240E028000812A185B00FC98DE828
:101130000F0014A0144A006804905168134801F08D
:101140000C03042B10D0082B0ED1C1F38343C90329
:101150001DF803000AD5516804AAC1F34041515C4F
:101160000A4A5043B0FBF1F005B0704708494843C4
:10117000FAE7000002030405060708090A0B0C0D34
:101180000E0F1010010200000010024000127A0041
:1011900000093D002DE9F84F04007DD0FA4EFB4DCB
:1011A00020684FF0010A4FF000084FF4803960B119
:1011B000C1070DD1810762D401076ED440076DD4F9
:1011C00040F26711F2A001F006FB2078C00753D06F
:1011D00060684FF4A02740B1484506D0B84204D01B
:1011E00040F26D11EAA001F0F6FA6868C0F38100E0
:1011F000012807D06868C0F38100022809D1686817
:10120000C00306D52868800336D560680028C4D09E
:1012100032E06068484503D1286840F4803009E036
:1012200008B1B8420DD0286820F4803028602868C2
:1012300020F480202860606888B1FFF71FFD074612
:1012400009E0286840F480202860E5E7FFF716FDF4
:10125000C01B642877D828688003F7D50CE0FFF717
:101260000DFD074605E000BFFFF708FDC01B642821
:10127000F0D828688003F7D4207880074ED52069FD
:1012800030B1012804D040F2A111C1A001F0A3FAAD
:1012900060691F2808D902E096E042E07BE04FF445
:1012A000D171BBA001F097FA686810F00C0F07D05D
:1012B0006868C0F38100022809D16868C00306D4B9
:1012C0002868800714D5206901287DD110E02069A5
:1012D000B0B1C6F800A0FFF7D1FC074605E000BF9B
:1012E000FFF7CCFCC01B0228B4D828688007F7D5CC
:1012F0002868616920F0F80040EAC10028600DE02C
:10130000C6F80080FFF7BAFC074604E0FFF7B6FC1A
:10131000C01B02289ED828688007F7D420780007D1
:1013200036D5A94FA06920B3012806D04FF4F1713A
:1013300097A001F050FAA069D8B1C7F800A0FFF754
:101340009DFC074605E054E1FFF798FCC01B02280E
:101350008ED8686A8007F7D59C484FF4FA51006828
:10136000B0FBF1F0009000BF0098411E0091FAD24E
:101370000EE0C7F80080FFF781FC074605E000BFDC
:10138000FFF77CFCC01B0228AED8686A8007F7D440
:10139000207840076ED5E068002740B1012806D0CC
:1013A000052804D040F2112179A001F014FAE8696F
:1013B000C00008D4E86940F08050E861E86901277E
:1013C00000F08050009000E027E181480168C905E5
:1013D00012D4016841F480710160FFF74FFC83462D
:1013E00006E000BFFFF74AFCA0EB0B00642891D891
:1013F00077480068C005F5D5E06801280AD008B133
:10140000052811D0286A20F001002862286A20F0FF
:10141000040002E0286A40F001002862E068A8B1F8
:10142000FFF72CFC83460DE0286A40F00400286298
:10143000F0E700BFFFF722FCA0EB0B0141F2883080
:10144000814285D8286A8007F4D50EE0FFF716FCA4
:10145000834607E0FFF712FCA0EB0B0141F2883056
:10146000814291D8286A8007F4D41FB1E86920F03E
:101470008050E861E06900287ED0012809D0022868
:1014800007D040F2AF2142A001F0A5F9E0690028A1
:1014900072D06868C0F381000228E0696DD002282C
:1014A00005D0C6F86080FFF7E9FB0446A4E0206A97
:1014B00030B1484504D04FF42E7135A001F08BF9BE
:1014C000606A70B3B0F5802F2BD0B0F5002F28D014
:1014D000B0F5402F25D0B0F5801F22D0B0F5A01F69
:1014E0001FD0B0F5C01F1CD0B0F5E01F19D0B0F56B
:1014F000001F16D0B0F5101F13D0B0F5201F10D06C
:10150000B0F5301F0DD0B0F5401F0AD0B0F5501F18
:1015100007D0B0F5601F04D040F2B9211CA001F043
:101520005AF9C6F86080FFF7A9FB074605E000BF3F
:10153000FFF7A4FBC01B02285BD828688001F7D402
:10154000206A48450FD1A06838B1B0F5003F04D0FB
:1015500040F2CF210EA001F03EF96868A16820F4A6
:10156000003008436860D4E908010843696821F441
:1015700074110843686001E051E041E0C6F860A0E2
:10158000FFF77CFB04462AE00000424200100240C4
:101590002E2E2F447269766572732F53544D333259
:1015A000463178785F48414C5F4472697665722FA6
:1015B0005372632F73746D3332663178785F68616C
:1015C0006C5F7263632E6300800442422800002037
:1015D00000700040FFF752FB001B022809D8286862
:1015E0008001F7D51BE000BFFFF748FB001B022876
:1015F00002D90320BDE8F88F28688001F4D40EE0FA
:101600000128F7D06868226A00F48031914204D141
:10161000616A00F47010884201D00120EAE70020DE
:10162000E8E710B5401EB0F1807F01D3012010BD66
:101630004FF0E02460610F21601700F063FC002090
:10164000A06107202061002010BD704770B50268BE
:1016500004461068D168536910F00F0F53D003F09F
:10166000010501F490762E435FD0C20705D0CA056C
:1016700003D5E26B42F00102E263420705D5DA07C7
:1016800003D0E26B42F00202E263820705D5DA077B
:1016900003D0E26B42F00402E263020707D501F0D7
:1016A00020022A4303D0E26B42F00802E263E26BBD
:1016B000002A34D0800604D5880602D5204600F0E2
:1016C000E5FA20684069E16BC0F3801001F0080181
:1016D0000143204624D000F0CBFA20684169490636
:1016E0001AD5416921F040014161606BA0B12D49DB
:1016F0004163606BFFF77EF8002810D0606B416B90
:10170000BDE87040084783060FD58B060DD52046EF
:10171000BDE8704000F0BABA2046FFF796FF70BDF2
:10172000FFF793FF0020E06370BD03062BD50B0687
:1017300029D594F839002128F6D1A068B0F5805F4A
:1017400001D12069B0B1206A411C21622168007872
:101750004860E08C401E0004000CE084E4D1206866
:10176000C16821F08001C1602068C16841F040017A
:10177000C16070BD206A0088C0F308005060206A14
:10178000801C2062E5E74006F3D54806F1D5D16814
:10179000204621F04001D160202184F8391000F06A
:1017A000D2F970BD611C000870B5040020D0A0699A
:1017B00030490028304A314B20681BD088420AD07B
:1017C000904208D0984206D04FF4A3712CA001F0AB
:1017D00002F8A069C8B1A069B0F5807F15D0B0F556
:1017E000007F12D0B0F5407F0FD040F2471109E0E2
:1017F000012070BD884208D0904206D0984204D0A3
:1018000040F24B111EA000F0E6FFA06838B1B0F521
:10181000805F04D040F24D1119A000F0DCFF94F875
:101820003900002520B984F83850204600F046F8E9
:10183000242084F839002068C16821F40051C16077
:10184000204600F069FA2068016921F490410161A5
:101850002068416921F02A0141612068C16841F492
:101860000051C160E563202084F8390084F83A0013
:10187000002070BD00380140004400400048004096
:101880002E2E2F447269766572732F53544D333266
:10189000463178785F48414C5F4472697665722FB3
:1018A0005372632F73746D3332663178785F686179
:1018B0006C5F756172742E630000000070B586B0B5
:1018C000002400940194029403942E4E03682E4940
:1018D000022003222D4DB34226D18B6943F480436D
:1018E0008B618B6903F4804304938B6943F0040399
:1018F0008B618969039201F0040104910102CDE931
:10190000001069462846FEF7C1FF2815CDE90004FE
:10191000694628460294FEF7B9FF002211462520A9
:10192000FFF73CFA252028E0194EB34227D1CB69B6
:1019300043F40033CB61CB6903F4003304938B6928
:1019400043F004038B618969039201F0040104915F
:101950000421CDE9001069462846FEF797FF0820CC
:10196000CDE90004694628460294FEF78FFF002265
:1019700011462620FFF712FA2620FFF7DDF906B000
:1019800070BD000000380140001002400008014016
:101990000044004090F83A30202B22D1F9B1F2B146
:1019A00090F83830012B1CD081628285C2850021DD
:1019B000C163222280F83A2080F838100168CA6892
:1019C00042F48072CA6001684A6942F001024A61C9
:1019D0000068C16841F02001C1600020704701200B
:1019E000704702207047000070B50068204986B03B
:1019F00088423AD11F4C20490023227822B9002086
:101A00000B54401C3228FBDB1A4D60782D7888542B
:101A10006D1CEDB20A2801D025701CE0237017A1BF
:101A20001548FEF7A1FBB0B100F0D6FEA068FEF7A6
:101A300005FC05460E466068FEF700FC0C340DF10F
:101A4000080C1CCC8CE81C00CDE9005602460B4665
:101A50000BA000F047FA06B00649BDE87040064802
:101A60000122491C4038FFF795BF06B070BD000049
:101A70000044004000000020B00000204C4D000059
:101A80004125664225664325644425644525644610
:101A90000A0000002DE9F843044690F839001F467B
:101AA00016460D4620284CD1C5B1BEB194F8380079
:101AB000012846D0012084F838004FF00008C4F80F
:101AC0003C80212084F83900FFF7D8F8A6848146AD
:101AD000E684A068B0F5805F03D004E00120BDE893
:101AE000F883206928B12E465FF0000584F838801D
:101AF0000EE00026FAE78021204600F0B3F9A0B9F5
:101B0000AEB116F8010B21684860E08C401EE084FD
:101B1000E08C4B464FF0000200970028EBD14FF0CD
:101B20004001204600F09EF930B10320D7E735F898
:101B3000020BC0F30800E6E7202084F839000020FB
:101B4000CDE70220CBE77047FEE7000070B586B016
:101B5000002428480094019402940394816941F080
:101B600010018161816901F010010491816941F0E6
:101B700020018161816901F020010491816941F0B6
:101B800004018161816901F004010491816941F0DE
:101B9000080181618069012200F00800164E55039A
:101BA000049029463046FFF733F801200095CDE92F
:101BB00001040220039069463046FEF767FE4FF4A9
:101BC00040400324CDE9000469463046FEF75EFE3E
:101BD00049F6F310CDE9000469460848FEF756FEC1
:101BE0004FF6FF70CDE9000469460548FEF74EFE4A
:101BF00006B070BD00100240001001400008014016
:101C0000000C0140FEE7704770477047FFF73CB893
:101C100030B58FB028216846FEF79BFA14210AA838
:101C2000FEF797FA01210804CDE900100024029480
:101C300002250491CDE907504FF4E0100990684661
:101C4000FFF7A8FA0F20CDE90A056802CDE90C409C
:101C500002210AA80E94FFF731F90FB030BD70478A
:101C600010B5406A0021C185C184FFF7EEFC10BDAC
:101C70000168CA6822F49072CA6001684A6922F059
:101C800001024A61202180F83A10704710B590F89F
:101C90003A10222901D0022010BD82684FF48053EF
:101CA0009A4201D1016921B1816A9A421BD04AB19D
:101CB0000AE00268816A5268C2F308020A80816AF7
:101CC000891C08E0026972B10268526802F07F0262
:101CD0000A70816A491C8162C18D491E0904090C80
:101CE000C18503D016E002685268F1E70168CA684E
:101CF00022F02002CA600168CA6822F48072CA60B9
:101D000001684A6922F001024A61202180F83A10F4
:101D1000FFF76AFE002010BD70B5044640684049D8
:101D2000884204D940F6F6313EA000F054FDE06848
:101D300038B1B0F5005F04D040F6F73139A000F0BB
:101D40004AFD206950B1B0F5806F07D0B0F5C06F83
:101D500004D040F6F83133A000F03DFD60694FF645
:101D6000F371084200D120B940F6F9312DA000F0FE
:101D700032FD20680169E26821F44051114301619C
:101D80002169A0680843616908432168CA6841F273
:101D90000C639A430243CA6020684169A26921F436
:101DA0004071114341612E492068884202D1FFF7FA
:101DB000ABF901E0FFF798F900EBC00101EB00126D
:101DC000606864218000B2FBF0F3B3FBF1F36FF0C5
:101DD00018067343B2FBF0F5B2FBF0F605EB830592
:101DE000322303EB0515B5FBF1F5B6FBF1F605F073
:101DF000F00505EB0615B2FBF0F6B2FBF0F0B0FB18
:101E0000F1F06FF01802504306EB800003EB001076
:101E1000B0FBF1F0216800F00F002844886070BD2D
:101E200020AA44002E2E2F447269766572732F53B8
:101E3000544D3332463178785F48414C5F44726983
:101E40007665722F5372632F73746D3332663178F7
:101E5000785F68616C5F756172742E6300000000CA
:101E6000003801402DE9F041984617460E460446D9
:101E7000069D1DE0681C1BD02DB1FEF7FFFEA0EBF8
:101E80000800A84214D92068C16821F4D071C1604B
:101E90002068416921F001014161202084F8390066
:101EA00084F83A00002084F838000320BDE8F0816F
:101EB0002068006836EA000004D00020B842D9D07B
:101EC0000020F3E70120F9E70148FFF7BFBB00005E
:101ED000300000200148FFF7B9BB0000700000206F
:101EE000FEE700000FB4054B10B503A9044A0298A1
:101EF00000F0DAF810BC5DF814FB00000D280008B3
:101F00002C0000200907090E002804DB00F1E02066
:101F100080F80014704700F00F0000F1E02080F816
:101F2000141D704702E008C8121F08C1002AFAD128
:101F300070477047002001E001C1121F002AFBD149
:101F4000704700002DE9FF5FDDE90220010DDDF89B
:101F500038B0024318D044F61050A1F2FF3141438B
:101F60000D140F98012820D0A5EB0B00401C5FEA50
:101F7000000A4FF00004474EDFF81C91A04650467F
:101F800016D5CAF1000728E00F98012443A20128C2
:101F900008D0002100980F9BC0E90021C0E902434E
:101FA000BDE8FF9F6FEA0B01F4E7CBF10000DEE72D
:101FB000074612E0F80707D0224633464046494616
:101FC000FEF774FA80468946224633461046194683
:101FD000FEF76CFA04460E467F10002FEAD1DDE9C9
:101FE0000201BAF1000F42464B4602DAFEF75EFAF2
:101FF00001E0FEF7CDFA04460E460022284BFEF71C
:102000004FFB03D84FF0FF30014607E00022254B7D
:1020100020463146FEF7A3F9FEF729FB102409E01C
:10202000002C0ADB0A220023FEF731F9019B303233
:102030001A55641E50EA0102F2D1641C019AC4F1DF
:10204000110314440F9A012A03D0012208430DD131
:102050000AE0084304D000204FF0110B0F9080E7F6
:10206000A3EB0B056D1E0DE05B4504DD4FF0000298
:1020700005F1010504E003DA4FF00002A5F10105C6
:10208000002AECD000980F99C0E90231C0E9004560
:1020900086E70000000024400000F03F3000000010
:1020A0000000F0430000E03F2DE9FF4F95B09B4654
:1020B0008946064600250FE2252877D100242746C9
:1020C000F84A0121059400E0044316F8013F203B43
:1020D00001FA03F01042F7D130782A2811D06FF0BE
:1020E0002F033078A0F13002092A16D8059A44F05F
:1020F000020402EB820203EB42021044761C0590BC
:10210000EFE759F8042B0592002A03DA504244F411
:102110000054059044F00204761C30782E2816D125
:1021200016F8010F44F004042A280DD06FF02F0296
:102130003078A0F13003092B09D807EB870302EBB5
:102140004303C718761CF3E759F8047B761C3078F4
:102150006C280FD006DC4C2817D068280DD06A28D0
:1021600014D104E0742810D07A280FD10DE044F483
:1021700000140AE044F4801401E044F4401472783E
:10218000824202D104F58014761C761C30786628D1
:102190000BD013DC582877D009DC002875D04528EF
:1021A000F6D04628F4D047281AD19DE118E06328DC
:1021B00035D0642879D0652812D195E1702873D084
:1021C00008DC6728F1D069286FD06E280DD06F2801
:1021D00006D1B5E073282CD0752875D0782874D036
:1021E0005A46179990476D1C75E1C4F302500228B6
:1021F00009D003280DD0D9F8001004280DD00D60A7
:1022000009F1040967E1D9F80010EA17C1E90052A1
:10221000F6E7D9F800100D80F2E70D70F0E719F835
:10222000041B8DF8001000208DF80100EA46012003
:1022300003E059F804AB4FF0FF3061074FF00001A5
:1022400002D40DE008F101018846B9420FDA804559
:10225000F8DB1AF808100029F4D108E008F10101B0
:1022600088468142FADB1AF808100029F6D1059851
:102270005B46A0EB080721463846179A00F094FA0F
:10228000284400EB080507E04DE029E10DE01AF8CD
:10229000010B5A4617999047B8F10108F7D25B46EF
:1022A00021463846179A13E142E00A220092C4F30D
:1022B00002524FF0000A022A08D059F804CB032A30
:1022C0004FEAEC710AD00DE029E02AE009F107019C
:1022D00021F00702F2E802C1914609E00FFA8CFCF6
:1022E0004FEAEC71042A03D14FFA8CFC4FEAEC71EF
:1022F000002907DA0A460021DCF1000C61EB02013B
:102300002D2202E0220504D52B228DF80420012283
:1023100003E0E20701D02022F7E7904659E00A21C6
:1023200002E010220DE010214FF0000A00910BE0B6
:1023300010224FF0000A44F004040827009203E042
:1023400008224FF0000A0092C4F30252022A05D07C
:1023500059F804CB0021032A08D009E009F107014C
:1023600021F00702F2E802C1914605E01FFA8CFC59
:10237000042A01D10CF0FF0C4FF00008220728D5E9
:10238000702806D0009B83F0100353EA0A0305D09F
:102390000EE040228DF80420012208E05CEA0102F0
:1023A00006D030228DF804208DF8050002229046D8
:1023B000009B83F0080353EA0A030AD15CEA010296
:1023C00001D1620705D530228DF804204FF00108B5
:1023D0007F1E582804D034A003900EA802900DE070
:1023E00036A0F9E753466046009AFDF750FF844651
:1023F0000398825C0298401E029002705CEA010021
:10240000F0D1029806A9081A00F1200A600702D547
:1024100024F4803400E00127574502DDA7EB0A00D1
:1024200000E0002000EB0A01009005984144401AAA
:102430000590E00306D45B462146179A059800F004
:10244000B3F90544002706E001A85A46C05D179974
:1024500090476D1C7F1C4745F6DBE0030CD55B46BF
:102460002146179A059800F09FF9054404E03020B2
:102470005A46179990476D1C0099481E00900029F4
:10248000F5DC08E0029802995A460078491C02914E
:10249000179990476D1CBAF10001AAF1010AF1DC0D
:1024A00065E1000009280100303132333435363718
:1024B0003839616263646566000000003031323390
:1024C0003435363738394142434445460000000030
:1024D00000F058F90544761C307800287FF4ECAD04
:1024E00019B02846BDE8F08F620700D4062709F12D
:1024F000070222F0070CFCE80223E14603F0004843
:102500005FEA080C02D00FF2702C0DE05FEA045C69
:1025100002D50FF2682C07E05FEAC47C02D00FF20C
:10252000602C01E0AFF2700C4FF0FF3823F0004355
:10253000CDF850C065280CD006DC452809D04628C7
:102540001DD047283DD13DE0662818D067287ED1B0
:1025500038E00021112F01DB112000E0781CCDE9CB
:10256000000106A90EA8FFF7EDFCDDE90F010E9AA8
:1025700003910021009207F1010A04914DE04FF010
:1025800000400097CDE9011006A90EA8FFF7DAFC7C
:10259000DDE90F0203920E9B11990022DDF80CA0D9
:1025A0000093049211B9791C00EB010AB7EB0A0001
:1025B00004D4C0F1FF3007F1010A0490AAEB070030
:1025C000019044E0012F00DA01270021112F01DDE5
:1025D000112000E03846CDE9000106A90EA8FFF75A
:1025E000B1FCDDE90F010E9A0391002104910092E4
:1025F000BA4621070CD40399514500DA8A46BAF14C
:10260000010F05DD009AAAF10101515C302908D0C3
:10261000B84202DA10F1040F06DA0121CDE9011007
:1026200015E0AAF10101E9E7002805DC049901445D
:102630000491AAEB000102E0411C514500DD8A46ED
:102640000499401A401C01904FF00040029020076E
:1026500004D40198504501DBCDF8048000208DF8AA
:102660004F0002980DF14F07B0F1004F25D02B20FD
:102670000E9002984FF0020800280CDA40420290B7
:102680002D200E9007E00A210298FDF7EAFD303177
:10269000029007F8011DB8F10001A8F10108F2DC71
:1026A00002980028EFD1791E0E980870307800F05B
:1026B000200040F0450007F8020D12A8C01B00F1F1
:1026C00007081498007800B1012000EB0A01019876
:1026D00001EBE07105984144401A401E0590E0036B
:1026E00006D45B462146179A059800F05DF805442C
:1026F0001498007818B15A46179990476D1CE0035A
:1027000024D55B462146179A059800F04DF80544FC
:102710001CE00498002807DBDDE90301884203DDA3
:102720000098405C179901E0179930205A4690476D
:10273000049805F10105401C04900198401E019089
:1027400004D12E205A46179990476D1CBAF100010A
:10275000AAF1010ADDDC05E017F8010B5A461799CA
:1027600090476D1CB8F10001A8F10108F4DC5B464C
:102770002146179A0598ABE62D0000002B000000BB
:10278000200000002DE9F041044600251E461746B2
:10279000880404D405E039462020B0476D1C641E2F
:1027A000F9D52846BDE8F0812DE9F0410446002521
:1027B0001E469046C80301D5302700E02027880434
:1027C00004D505E041463846B0476D1C641EF9D576
:1027D0002846BDE8F081704710B50B4C4FF07E5194
:1027E0006068FDF7D3FC60604FF08041A068FDF7A2
:1027F000CDFCA060E068C01CE0602069001D206185
:102800006069401D606110BD0000002013B54FF6E7
:10281000FF742346012269460548FFF73BF9044847
:102820002346012269464030FFF734F900981CBD69
:1028300030000020FEF730FAFFF7EAF9FFF786F9DB
:102840001F481E494FF4165500240160C0E9015489
:102850000C26C460C0E904468461C461FEF7A4FF8D
:102860001748184940300160C0E90154C460C0E90C
:1028700004468461C461FEF797FF114801221249A2
:102880004030FFF787F8FEF7F9F90F4C4FF47A77ED
:10289000641E4FF400550D4EC4F81800FEF7EEF913
:1028A000A169401AB842F9D329463046FEF780F9AB
:1028B000FFF792FFFEF7E2F9A061EFE70038014071
:1028C00030000020004400400100002000100140C2
:1028D00000000000000000000102030406070809D0
:1028E0000000000001020304082900080000002085
:1028F00030000000241F00083829000830000020A4
:10290000B8040000341F00080000000000000000B0
:1029100000000000000000000000000000000000B7
:102920000000000001000000100000000000000096
:082930000024F4000000000087
:04000005080000ED02
:00000001FF
